{
  "contractName": "Marketplace",
  "abi": [
    {
      "inputs": [],
      "payable": false,
      "stateMutability": "nonpayable",
      "type": "constructor"
    },
    {
      "constant": true,
      "inputs": [],
      "name": "name",
      "outputs": [
        {
          "internalType": "string",
          "name": "",
          "type": "string"
        }
      ],
      "payable": false,
      "stateMutability": "view",
      "type": "function"
    },
    {
      "constant": false,
      "inputs": [
        {
          "internalType": "uint256",
          "name": "_price",
          "type": "uint256"
        }
      ],
      "name": "purchaseProduct",
      "outputs": [],
      "payable": true,
      "stateMutability": "payable",
      "type": "function"
    }
  ],
  "bytecode": "0x608060405234801561001057600080fd5b506040518060400160405280601581526020017f4475617261436f696e204d61726b6574706c61636500000000000000000000008152506000908051906020019061005c929190610062565b50610107565b828054600181600116156101000203166002900490600052602060002090601f016020900481019282601f106100a357805160ff19168380011785556100d1565b828001600101855582156100d1579182015b828111156100d05782518255916020019190600101906100b5565b5b5090506100de91906100e2565b5090565b61010491905b808211156101005760008160009055506001016100e8565b5090565b90565b61033b806101166000396000f3fe6080604052600436106100295760003560e01c806306fdde031461002e57806338e76a03146100be575b600080fd5b34801561003a57600080fd5b506100436100ec565b6040518080602001828103825283818151815260200191508051906020019080838360005b83811015610083578082015181840152602081019050610068565b50505050905090810190601f1680156100b05780820380516001836020036101000a031916815260200191505b509250505060405180910390f35b6100ea600480360360208110156100d457600080fd5b810190808035906020019092919050505061018a565b005b60008054600181600116156101000203166002900480601f0160208091040260200160405190810160405280929190818152602001828054600181600116156101000203166002900480156101825780601f1061015757610100808354040283529160200191610182565b820191906000526020600020905b81548152906001019060200180831161016557829003601f168201915b505050505081565b600073c65fb6d0aedc5f8573e2e0a53805989809423f7c905081341015610219576040517f08c379a00000000000000000000000000000000000000000000000000000000081526004018080602001828103825260148152602001807f696e73756666696369656e742062616c616e636500000000000000000000000081525060200191505060405180910390fd5b3373ffffffffffffffffffffffffffffffffffffffff168173ffffffffffffffffffffffffffffffffffffffff1614156102bb576040517f08c379a00000000000000000000000000000000000000000000000000000000081526004018080602001828103825260198152602001807f63616e6e6f74207573652073656c6c6572206163636f756e740000000000000081525060200191505060405180910390fd5b8073ffffffffffffffffffffffffffffffffffffffff166108fc839081150290604051600060405180830381858888f19350505050158015610301573d6000803e3d6000fd5b50505056fea265627a7a72315820233982e18d99e058d4428edb94169bb1660c32c1d484558572e61ba97b17cb0c64736f6c63430005100032",
  "source": "pragma solidity >=0.4.21 <8.10.0;\r\n\r\ncontract Marketplace {\r\n\tstring public name;\r\n\r\n\tconstructor() public {\r\n\t\tname = \"DuaraCoin Marketplace\";\r\n\t}\r\n\r\n\r\n\r\n\tfunction purchaseProduct (uint _price) public payable {\r\n\r\n\t\t// fetch the product owner's address\r\n\t\taddress payable _seller = 0xC65Fb6D0AeDc5F8573E2E0a53805989809423F7C;\r\n\r\n\t\t// require that there is enough ether for the transaction\r\n\t\trequire (msg.value >= _price, \"insufficient balance\");\r\n\t\t\r\n\t\t// require that the buyer is not the seller\r\n\t\trequire (_seller != msg.sender, \"cannot use seller account\");\r\n\r\n\t\t// pay the seller by sending them ether\r\n\t\taddress(_seller).transfer(_price);\r\n\t}\r\n}\r\n\r\n",
  "sourcePath": "F:\\projects\\ethereum\\undeadblocks\\src\\contracts\\Marketplace.sol",
  "compiler": {
    "name": "solc",
    "version": "0.5.16+commit.9c3226ce.Emscripten.clang"
  },
  "schemaVersion": "3.4.7",
  "updatedAt": "2022-04-29T00:19:10.369Z",
  "networkType": "ethereum",
  "devdoc": {
    "methods": {}
  },
  "userdoc": {
    "methods": {}
  }
}